{"abi":[{"type":"function","name":"commitHash","inputs":[{"name":"contentHash","type":"bytes32","internalType":"bytes32"}],"outputs":[],"stateMutability":"nonpayable"},{"type":"function","name":"timestamps","inputs":[{"name":"","type":"bytes32","internalType":"bytes32"}],"outputs":[{"name":"","type":"uint256","internalType":"uint256"}],"stateMutability":"view"},{"type":"function","name":"verifyHash","inputs":[{"name":"contentHash","type":"bytes32","internalType":"bytes32"}],"outputs":[{"name":"","type":"uint256","internalType":"uint256"}],"stateMutability":"view"},{"type":"event","name":"HashCommitted","inputs":[{"name":"contentHash","type":"bytes32","indexed":true,"internalType":"bytes32"},{"name":"blockNumber","type":"uint256","indexed":false,"internalType":"uint256"}],"anonymous":false}],"bytecode":{"object":"0x6080604052348015600e575f5ffd5b506102cf8061001c5f395ff3fe608060405234801561000f575f5ffd5b506004361061003f575f3560e01c80633c37b64014610043578063b58729581461005f578063ef020f4a1461008f575b5f5ffd5b61005d600480360381019061005891906101c5565b6100bf565b005b610079600480360381019061007491906101c5565b610161565b6040516100869190610208565b60405180910390f35b6100a960048036038101906100a491906101c5565b610175565b6040516100b69190610208565b60405180910390f35b5f5f5f8381526020019081526020015f205414610111576040517f08c379a00000000000000000000000000000000000000000000000000000000081526004016101089061027b565b60405180910390fd5b435f5f8381526020019081526020015f2081905550807f61a7da7545e091894f91360f761496bd5736eb964ee2f9f6f0329bf0c69a41ca436040516101569190610208565b60405180910390a250565b5f602052805f5260405f205f915090505481565b5f5f5f8381526020019081526020015f20549050919050565b5f5ffd5b5f819050919050565b6101a481610192565b81146101ae575f5ffd5b50565b5f813590506101bf8161019b565b92915050565b5f602082840312156101da576101d961018e565b5b5f6101e7848285016101b1565b91505092915050565b5f819050919050565b610202816101f0565b82525050565b5f60208201905061021b5f8301846101f9565b92915050565b5f82825260208201905092915050565b7f4861736820616c726561647920636f6d6d6974746564000000000000000000005f82015250565b5f610265601683610221565b915061027082610231565b602082019050919050565b5f6020820190508181035f83015261029281610259565b905091905056fea26469706673582212208d5e21af7f71d38a22c837187e822f1a12bdbd9790a6fba31404a522c28f7fee64736f6c634300081e0033","linkReferences":{}},"methodIdentifiers":{"commitHash(bytes32)":"3c37b640","timestamps(bytes32)":"b5872958","verifyHash(bytes32)":"ef020f4a"},"id":1}